:100000000C9434000C94A1100C9415111895000058
:10001000189500001895000018950000189500002C
:10002000189500001895000018950000189500001C
:10003000189500001895000018950000189500000C
:1000400018950000189500001895000018950000FC
:1000500018950000189500001895000018950000EC
:1000600018950000189500008FEF8DBFC0E8E8E9F3
:100070004E2E88E08EBFD8E0F7E05F2EA89584B7BB
:10008000082E877F84BF88E1992780936000909332
:100090006000EEEFF7E0A0E0B1E088278D933197A4
:1000A000E9F78CE08093C40080E08093C50088E18C
:1000B0008093C10072E07093C000662470910001CB
:1000C0007F77709300013C9A3B9A3A9A389A399A12
:1000D0000E94F21E0E94F21E0E941D1F81E20E94D9
:1000E000071F8EEB0E94071FA6E0B1E0EEE2F7E4E7
:1000F0000E948121AEE0B1E0EEE2F7E40E948121AE
:10010000A6E1B1E0E2E3F7E40E948121AEE1B1E0D3
:10011000E6E3F7E40E948121A6E2B1E0EAE3F7E436
:100120000E948121AEE2B1E0EEE3F7E40E9481217A
:10013000A6E3B1E0E2E4F7E40E948121AEE3B1E09E
:10014000E2E4F7E40E948121A6E4B1E0E6E4F7E40A
:100150000E948121AEE4B1E0EAE4F7E40E9481214B
:10016000EEE4F7E40E948A23E6E4F1E00E944C22E8
:100170000E949522EDE0F0E0AAE4B1E00E94F221B5
:10018000EEE4F7E40E948A23EEE4F1E00E944C22C0
:100190000E949522EDE0F0E0A2E5B1E00E94F2219C
:1001A000A6E5B1E0E2E4F7E40E948121EEE4F7E4A1
:1001B0000E948A23E6E3F1E00E944C220E949522ED
:1001C000EDE0F0E0AAE3B1E00E94F221EEE4F7E412
:1001D0000E948A23EEE3F1E00E944C220E949522C5
:1001E000EDE0F0E0A2E4B1E00E94F22170910001A4
:1001F0007F7B70930001709100017F7D70930001FF
:10020000AAE5B1E0E2E9F7E40E947321AFE5B1E0CD
:10021000E2E9F7E40E947321E0E0F0E0A4E6B1E057
:100220000E940F2281E08093640180E191E0A5E6C5
:10023000B1E08D939C9380E18093670180E380938C
:1002400068018CEA92E0A9E6B1E08D939C9381E08D
:1002500080936B0188E080936C01E1E0F0E0ADE613
:10026000B1E00E940F22709100017F7E7093000127
:10027000559A569A209A289AA2E7B1E0E2E5F7E467
:100280000E948121AEE6B1E00E948B2170910001B5
:100290007B7F7093000181E080939A0181E08093DD
:1002A000990181E080939801709100017D7F7093A6
:1002B000000170919B017F7D70939B0180E0809392
:1002C0009C018CE00E94071FE4EBF5E3A1E0B1E0A4
:1002D000ED93FC9381E0809303018AE08093040115
:1002E000882780930501E8E9F7E40E94CB1EE0E748
:1002F000F0E3A1E0B1E0ED93FC9384E0809303018F
:1003000081E080930401882780930501E0EAF7E407
:100310000E94CB1E8FEA80939D0100919D010E3BB0
:1003200018F011F00C94A70181E20E94071F809140
:100330009D010E94071F88EC90E00E94E31EADE93A
:10034000B1E08C918F5F8C9310F40C948D0181E25D
:100350000E94071F8EEB0E94071FE2E0F0E00E9460
:10036000D21E0E94F21E0E941D1F81E20E94071FE2
:100370008EEB0E94071F0E9475175398529854984D
:100380005C9A5A9A5B9A22981A9A70919B017F7E86
:1003900070939B0170919B01786070939B017091A9
:1003A0009B017B7F70939B0124981C9A81E085BD03
:1003B0007894809169008C7F82608093690080913D
:1003C0006900837F886080936900E99AE89A709158
:1003D0009B01706870939B0170919B017064709396
:1003E0009B010E941D1FEEE4F7E40E948A23EEE0C9
:1003F000F1E00E944C220E949522EDE0F0E0A2E1A3
:10040000B1E00E94F221EEE4F7E40E948A23E6E0E4
:10041000F1E00E944C220E949522EDE0F0E0AAE07B
:10042000B1E00E94F221EEE4F7E40E948A23EEE1BB
:10043000F1E00E944C220E949522EDE0F0E0A2E261
:10044000B1E00E94F221EEE4F7E40E948A23E6E1A3
:10045000F1E00E944C220E949522EDE0F0E0AAE13A
:10046000B1E00E94F221EEE4F7E40E948A23EEE27A
:10047000F1E00E944C220E949522EDE0F0E0A2E320
:10048000B1E00E94F221709168007460709368007E
:100490007CE170936D0070916800716070936800EA
:1004A00070916B00706170936B0070919B01706232
:1004B00070939B01ABE9B1E08C9184FB16F00C9436
:1004C000680270919B01716070939B010C946D02A6
:1004D00070919B017E7F70939B0170910001777FEB
:1004E000709300010E94CB17A3E2B0E00C9104FBD3
:1004F00081E00EF080E08F93A0E0B1E08C9184FB6E
:1005000081E00EF080E09F918923882311F40C9400
:100510009702709100017F7E7093000184EF91E05B
:100520000E94E31E70919B01706270939B0154982E
:10053000A3EBB1E09C9197FF04C04C9B10C09F7748
:100540009C934C990CC089E19F9390E00E94E31E1C
:100550009F914C9904C090689C930E945C170091F5
:100560009801013011F00C9465045498A3EBB1E0AC
:100570009C9197FF04C04C9B10C09F779C934C9913
:100580000CC089E19F9390E00E94E31E9F914C99DB
:1005900004C090689C930E9480170E94CB17A3E22E
:1005A000B0E00C9104FB81E00EF080E08F93A0E0BE
:1005B000B1E08C9184FB81E00EF080E09F91892373
:1005C000882311F40C94F202709100017F7E7093E5
:1005D000000184EF91E00E94E31E70919B01706224
:1005E00070939B01E4EBF5E3A1E0B1E0ED93FC93A4
:1005F000A0E0B1E08C9186FB16F40C94570381E0E7
:100600008093030181E08093040188278093050192
:10061000A0E8B7E0E2E1F1E0552744E00E94D11FF5
:100620000E94C31EE0E7F0E3A1E0B1E0ED93FC938C
:10063000F89483E08093030181E08093040188278C
:1006400080930501E0EBF7E40E94CB1EA0E8B7E041
:10065000E7E6F1E00E94AC210E94C31EE4EBF7E460
:100660000E94CB1E0091A001043011F00C944703AE
:1006700084E08093030181E08093040188278093C4
:100680000501EEEBF7E40E94CB1E0C94540384E0CA
:100690008093030181E08093040188278093050102
:1006A000E4EBF7E40E94CB1E78940C94B303E4EBE4
:1006B000F5E3A1E0B1E0ED93FC9381E080930301C9
:1006C00081E080930401882780930501A0E8B7E0CA
:1006D000E2E4F1E0552744E00E94D11F0E94C31ECE
:1006E000E0E7F0E3A1E0B1E0ED93FC93F89483E060
:1006F0008093030181E080930401882780930501A2
:10070000E0EBF7E40E94CB1EA0E8B7E0E5E6F1E0FD
:100710000E949F210E94C31EE4EBF7E40E94CB1EBF
:100720000091A001043011F00C94A50384E08093A3
:10073000030181E080930401882780930501EEEB9B
:10074000F7E40E94CB1E0C94B20384E08093030173
:1007500081E080930401882780930501E4EBF7E4AE
:100760000E94CB1E7894E0E7F0E3A1E0B1E0ED93C6
:10077000FC93A0E0B1E08C9186FB16F00C94F4039E
:10078000F89485E08093030181E080930401882739
:1007900080930501A0E8B7E0E2E1F1E0552744E0ED
:1007A0000E94D11F0E94C31EE8ECF7E40E94CB1EFA
:1007B00086E08093030181E0809304018827809381
:1007C0000501E0EBF7E40E94CB1EA0E8B7E0E7E606
:1007D000F1E00E94AC210E94C31EE4EBF7E40E940A
:1007E000CB1E78940C942604F89485E08093030142
:1007F00081E080930401882780930501A0E8B7E099
:10080000E2E4F1E0552744E00E94D11F0E94C31E9C
:10081000E8ECF7E40E94CB1E86E08093030181E0C0
:1008200080930401882780930501E0EBF7E40E94A0
:10083000CB1EA0E8B7E0E5E6F1E00E949F210E9410
:10084000C31EE4EBF7E40E94CB1E7894ABE9B1E061
:100850008C9185FB16F00C94340470919B017F7D84
:1008600070939B010E94590F0E94B91EABE9B1E041
:100870008C9184FB16F00C94420473B7707F756002
:1008800073BF8895ABE9B1E08C9184FB882780F930
:10089000809580FBABE9B1E08C9184F98C93A0E06A
:1008A000B1E08C9185FB16F00C94B5020E941D1FDF
:1008B000709100017F7D7093000182E08093980128
:1008C00070919B017F7E70939B0100919801023093
:1008D00011F00C94040C0E94CB17009168010F32A8
:1008E00011F00C947B04A6E7B1E0EEECF7E40E9473
:1008F00073210C943905003311F00C948704A6E79A
:10090000B1E0E6EDF7E40E9473210C943905013360
:1009100011F00C949304A6E7B1E0EEEDF7E40E9429
:1009200073210C943905023311F00C949F04A6E74F
:10093000B1E0E6EEF7E40E9473210C94390503332D
:1009400011F00C94AB04A6E7B1E0EEEEF7E40E94E0
:1009500073210C943905043311F00C94B704A6E705
:10096000B1E0E6EFF7E40E9473210C9439050533FA
:1009700011F00C94C304A6E7B1E0E6EDF7E40E94A1
:1009800073210C943905063311F00C94CF04A6E7BB
:10099000B1E0EEEFF7E40E9473210C9439050733C0
:1009A00011F00C94DB04A6E7B1E0E6E0F8E40E9465
:1009B00073210C943905083311F00C94E704A6E771
:1009C000B1E0EEE0F8E40E9473210C94390509339C
:1009D00011F00C94F304A6E7B1E0E6EDF7E40E9411
:1009E00073210C9439050A3311F00C94FF04A6E727
:1009F000B1E0E6E1F8E40E9473210C9439050B3371
:100A000011F00C940B05A6E7B1E0E6EDF7E40E94C7
:100A100073210C9439050C3311F00C941705A6E7DB
:100A2000B1E0EEE1F8E40E9473210C9439050D3336
:100A300011F00C942305A6E7B1E0E6E2F8E40E9489
:100A400073210C9439050E3311F00C942F05A6E791
:100A5000B1E0EEE2F8E40E9473210C9439050F3303
:100A600011F00C943905A6E7B1E0E6E3F8E40E9442
:100A70007321A9E6B1E00D911C910C3A52E01507E3
:100A800011F00C944B05A7E8B1E0E6E0F8E40E9411
:100A900073210C94E5080D3A52E0150711F00C94FF
:100AA0005905A7E8B1E0E6EDF7E40E9473210C9444
:100AB000E5080E3A52E0150711F00C946705A7E817
:100AC000B1E0E6EDF7E40E9473210C94E5080F3ADB
:100AD00052E0150711F00C947505A7E8B1E0E6EDBA
:100AE000F7E40E9473210C94E508003B52E01507DF
:100AF00011F00C948305A7E8B1E0EEE3F8E40E945E
:100B000073210C94E508013B52E0150711F00C9499
:100B10009105A7E8B1E0E6EDF7E40E9473210C949B
:100B2000E508023B52E0150711F00C949F05A7E879
:100B3000B1E0E6E4F8E40E9473210C94E508033B7D
:100B400052E0150711F00C94AD05A7E8B1E0E6ED11
:100B5000F7E40E9473210C94E508043B52E015076A
:100B600011F00C94BB05A7E8B1E0E6EDF7E40E94B4
:100B700073210C94E508053B52E0150711F00C9425
:100B8000C905A7E8B1E0E6EDF7E40E9473210C94F3
:100B9000E508063B52E0150711F00C94D705A7E8CD
:100BA000B1E0EEE4F8E40E9473210C94E508073B01
:100BB00052E0150711F00C94E505A7E8B1E0E6ED69
:100BC000F7E40E9473210C94E508083B52E01507F6
:100BD00011F00C94F305A7E8B1E0EEE1F8E40E940F
:100BE00073210C94E508093B52E0150711F00C94B1
:100BF0000106A7E8B1E0E6EDF7E40E9473210C944A
:100C0000E5080A3B52E0150711F00C940F06A7E81F
:100C1000B1E0E6E5F8E40E9473210C94E5080B3B93
:100C200052E0150711F00C941D06A7E8B1E0E6EDBF
:100C3000F7E40E9473210C94E5080C3B52E0150781
:100C400011F00C942B06A7E8B1E0EEE5F8E40E9461
:100C500073210C94E5080D3B52E0150711F00C943C
:100C60003906A7E8B1E0E6EDF7E40E9473210C94A1
:100C7000E5080E3B52E0150711F00C944706A7E873
:100C8000B1E0E6EDF7E40E9473210C94E5080F3B18
:100C900052E0150711F00C945506A7E8B1E0E6ED17
:100CA000F7E40E9473210C94E508003C52E015071C
:100CB00011F00C946306A7E8B1E0E6E6F8E40E94C0
:100CC00073210C94E508013C52E0150711F00C94D7
:100CD0007106A7E8B1E0E6EDF7E40E9473210C94F9
:100CE000E508023C52E0150711F00C947F06A7E8D6
:100CF000B1E0EEE6F8E40E9473210C94E508033CB1
:100D000052E0150711F00C948D06A7E8B1E0E6ED6E
:100D1000F7E40E9473210C94E508043C52E01507A7
:100D200011F00C949B06A7E8B1E0E6EDF7E40E9411
:100D300073210C94E508053C52E0150711F00C9462
:100D4000A906A7E8B1E0E6EDF7E40E9473210C9450
:100D5000E508063C52E0150711F00C94B706A7E829
:100D6000B1E0E6E7F8E40E9473210C94E508073C43
:100D700052E0150711F00C94C506A7E8B1E0E6EDC6
:100D8000F7E40E9473210C94E508083C52E0150733
:100D900011F00C94D306A7E8B1E0EEE7F8E40E9466
:100DA00073210C94E508093C52E0150711F00C94EE
:100DB000E106A7E8B1E0E6EDF7E40E9473210C94A8
:100DC000E5080A3C52E0150711F00C94EF06A7E87D
:100DD000B1E0EEE4F8E40E9473210C94E5080B3CCA
:100DE00052E0150711F00C94FD06A7E8B1E0E6ED1E
:100DF000F7E40E9473210C94E5080C3C52E01507BF
:100E000011F00C940B07A7E8B1E0E6E8F8E40E94C3
:100E100073210C94E5080D3C52E0150711F00C9479
:100E20001907A7E8B1E0E6EDF7E40E9473210C94FE
:100E3000E5080E3C52E0150711F00C942707A7E8CF
:100E4000B1E0E6EDF7E40E9473210C94E5080F3C55
:100E500052E0150711F00C943507A7E8B1E0E6ED74
:100E6000F7E40E9473210C94E508003D52E0150759
:100E700011F00C944307A7E8B1E0EEE8F8E40E9413
:100E800073210C94E508013D52E0150711F00C9414
:100E90005107A7E8B1E0E6EDF7E40E9473210C9456
:100EA000E508023D52E0150711F00C945F07A7E832
:100EB000B1E0E6EDF7E40E9473210C94E508033DF0
:100EC00052E0150711F00C946D07A7E8B1E0E6EDCC
:100ED000F7E40E9473210C94E508043D52E01507E5
:100EE00011F00C947B07A7E8B1E0E6EDF7E40E946F
:100EF00073210C94E508053D52E0150711F00C94A0
:100F00008907A7E8B1E0E6EDF7E40E9473210C94AD
:100F1000E508063D52E0150711F00C949707A7E885
:100F2000B1E0EEE7F8E40E9473210C94E508073D78
:100F300052E0150711F00C94A507A7E8B1E0E6ED23
:100F4000F7E40E9473210C94E508083D52E0150770
:100F500011F00C94B307A7E8B1E0E6EDF7E40E94C6
:100F600073210C94E508093D52E0150711F00C942B
:100F7000C107A7E8B1E0E6EDF7E40E9473210C9405
:100F8000E5080A3D52E0150711F00C94CF07A7E8D9
:100F9000B1E0E6E9F8E40E9473210C94E5080B3D0A
:100FA00052E0150711F00C94DD07A7E8B1E0E6ED7B
:100FB000F7E40E9473210C94E5080C3D52E01507FC
:100FC00011F00C94EB07A7E8B1E0E6EDF7E40E941E
:100FD00073210C94E5080D3D52E0150711F00C94B7
:100FE000F907A7E8B1E0E6EDF7E40E9473210C945D
:100FF000E5080E3D52E0150711F00C940708A7E82C
:10100000B1E0EEE9F8E40E9473210C94E5080F3D8D
:1010100052E0150711F00C941508A7E8B1E0E6EDD1
:10102000F7E40E9473210C94E508003E52E0150796
:1010300011F00C942308A7E8B1E0E6E1F8E40E947F
:1010400073210C94E508013E52E0150711F00C9451
:101050003108A7E8B1E0E6EDF7E40E9473210C94B3
:10106000E508023E52E0150711F00C943F08A7E88E
:10107000B1E0E6E1F8E40E9473210C94E508033E38
:1010800052E0150711F00C944D08A7E8B1E0E6ED29
:10109000F7E40E9473210C94E508043E52E0150722
:1010A00011F00C945B08A7E8B1E0E6EDF7E40E94CC
:1010B00073210C94E508053E52E0150711F00C94DD
:1010C0006908A7E8B1E0E6EDF7E40E9473210C940B
:1010D000E508063E52E0150711F00C947708A7E8E2
:1010E000B1E0EEE0F8E40E9473210C94E508073EBD
:1010F00052E0150711F00C948508A7E8B1E0E6ED81
:10110000F7E40E9473210C94E508083E52E01507AD
:1011100011F00C949308A7E8B1E0EEECF7E40E941C
:1011200073210C94E508093E52E0150711F00C9468
:10113000A108A7E8B1E0E6EDF7E40E9473210C9462
:10114000E5080A3E52E0150711F00C94AF08A7E835
:10115000B1E0E6EAF8E40E9473210C94E5080B3E46
:1011600052E0150711F00C94BD08A7E8B1E0E6EDD8
:10117000F7E40E9473210C94E5080C3E52E0150739
:1011800011F00C94CB08A7E8B1E0E6EDF7E40E947B
:1011900073210C94E5080D3E52E0150711F00C94F4
:1011A000D908A7E8B1E0E6EDF7E40E9473210C94BA
:1011B000E5080E3E52E0150711F00C94E508A7E88B
:1011C000B1E0EEEAF8E40E9473215498A3EBB1E099
:1011D0009C9197FF04C04C9B10C09F779C934C99A7
:1011E0000CC089E19F9390E00E94E31E9F914C996F
:1011F00004C090689C930E9480171C9B0C94640A06
:10120000A0E0B1E08C9186FB16F40C947109E4EB3C
:10121000F5E3A1E0B1E0ED93FC9381E0809303015D
:1012200081E080930401882780930501A0E8B7E05E
:10123000E2E2F1E0552744E00E94D11F0E94C31E64
:10124000E6EBF8E40E94CB1EE0E7F0E3A1E0B1E0BA
:10125000ED93FC93F89483E08093030181E0809305
:101260000401882780930501E0EBF7E40E94CB1E80
:10127000A0E8B7E0E8E6F1E00E94AC210E94C31EBE
:10128000E6EBF8E40E94CB1EA6E7B1E00E94C51E83
:10129000E8EBF8E40E94CB1E0091A001043011F0AD
:1012A0000C94610984E08093030181E08093040140
:1012B000882780930501EEEBF7E40E94CB1E0C9487
:1012C0006E0984E08093030181E080930401882704
:1012D00080930501E4EBF7E40E94CB1E78940C9414
:1012E000D909E4EBF5E3A1E0B1E0ED93FC9381E0F3
:1012F0008093030181E08093040188278093050196
:10130000A0E8B7E0E2E5F1E0552744E00E94D11FF4
:101310000E94C31EE8EBF8E40E94CB1EE0E7F0E376
:10132000A1E0B1E0ED93FC93F8940091A0010430AA
:1013300011F00C94AA0984E08093030181E080936A
:101340000401882780930501EEEBF7E40E94CB1E91
:101350000C94B70984E08093030181E08093040139
:10136000882780930501E4EBF7E40E94CB1E83E01D
:101370008093030181E08093040188278093050115
:10138000E0EBF7E40E94CB1EA0E8B7E0E9E6F1E06D
:101390000E949F210E94C31EE6EBF8E40E94CB1E30
:1013A000A7E8B1E00E94C51EE8EBF8E40E94CB1E5E
:1013B0007894A0E0B1E08C9186FB16F00C94220AA0
:1013C000E0E7F0E3A1E0B1E0ED93FC9385E08093EA
:1013D000030181E080930401882780930501A0E840
:1013E000B7E0E2E2F1E0552744E00E94D11F0E94FD
:1013F000C31EE8ECF7E40E94CB1EF89486E08093CD
:10140000030181E080930401882780930501E0EBCC
:10141000F7E40E94CB1EA0E8B7E0E8E6F1E00E9406
:10142000AC210E94C31EE6EBF8E40E94CB1EA6E7A7
:10143000B1E00E94C51EE8EBF8E40E94CB1E789450
:101440000C94620AE0E7F0E3A1E0B1E0ED93FC93D5
:1014500085E08093030181E08093040188278093D5
:101460000501A0E8B7E0E2E5F1E0552744E00E947D
:10147000D11F0E94C31EE8ECF7E40E94CB1EF89433
:1014800086E08093030181E08093040188278093A4
:101490000501E0EBF7E40E94CB1EA0E8B7E0E9E627
:1014A000F1E00E949F210E94C31EE6EBF8E40E9437
:1014B000CB1EA7E8B1E00E94C51EE8EBF8E40E944D
:1014C000CB1E78940C947A0BA0E0B1E08C9186FB53
:1014D00016F40C94B10AE4EBF5E3A1E0B1E0ED936E
:1014E000FC9381E08093030181E0809304018827CD
:1014F00080930501A0E8B7E0EAE1F1E0552744E078
:101500000E94D11F0E94C31EE6EBF8E40E94CB1E8E
:10151000E0E7F0E3A1E0B1E0ED93FC9383E080939A
:10152000030181E080930401882780930501E0EBAB
:10153000F7E40E94CB1EA0E8B7E0E8E6F1E00E94E5
:10154000AC210E94C31EE6EBF8E40E94CB1EA6E786
:10155000B1E00E94C51EE8EBF8E40E94CB1E0C949B
:10156000F50AE4EBF5E3A1E0B1E0ED93FC9381E053
:101570008093030181E08093040188278093050113
:10158000A0E8B7E0EAE4F1E0552744E00E94D11F6B
:101590000E94C31EE6EBF8E40E94CB1EE0E7F0E3F6
:1015A000A1E0B1E0ED93FC9383E08093030181E03F
:1015B00080930401882780930501E0EBF7E40E9403
:1015C000CB1EA0E8B7E0E9E6F1E00E949F210E946F
:1015D000C31EE6EBF8E40E94CB1EA7E8B1E00E9430
:1015E000C51EE8EBF8E40E94CB1EA0E0B1E08C91B0
:1015F00086FB16F00C943C0BE0E7F0E3A1E0B1E0D1
:10160000ED93FC9385E08093030181E080930401D6
:10161000882780930501A0E8B7E0EAE1F1E05527CB
:1016200044E00E94D11F0E94C31EE8ECF7E40E9430
:10163000CB1E86E08093030181E08093040188271C
:1016400080930501E0EBF7E40E94CB1EA0E8B7E031
:10165000E8E6F1E00E94AC210E94C31EE6EBF8E44C
:101660000E94CB1EA6E7B1E00E94C51EE8EBF8E49D
:101670000E94CB1E0C947A0BE0E7F0E3A1E0B1E00E
:10168000ED93FC9385E08093030181E08093040156
:10169000882780930501A0E8B7E0EAE4F1E0552748
:1016A00044E00E94D11F0E94C31EE8ECF7E40E94B0
:1016B000CB1E86E08093030181E08093040188279C
:1016C00080930501E0EBF7E40E94CB1EA0E8B7E0B1
:1016D000E9E6F1E00E949F210E94C31EE6EBF8E4D8
:1016E0000E94CB1EA7E8B1E00E94C51EE8EBF8E41B
:1016F0000E94CB1EABE9B1E08C9185FB16F00C94F7
:10170000D30B70919B017F7D70939B01A0E0B1E0B2
:101710008C9186FB16F40C94B90B00916801073389
:1017200081E009F080E08F9300916801033381E04C
:1017300009F080E09F91892B8F93009168010D3310
:1017400081E009F080E09F91892B882311F40C94AB
:10175000B10BAAE5B1E0ECEBF8E40E9473210C9424
:10176000B70BAAE5B1E0E2ECF8E40E9473210C9417
:10177000D10BA9E6B1E00D911C91003E52E0150796
:1017800011F00C94CB0BAAE5B1E0ECEBF8E40E946D
:1017900073210C94D10BAAE5B1E0E2ECF8E40E94CD
:1017A00073210E94F20F0E94B91EABE9B1E08C9147
:1017B00084FB16F00C94E10B73B7707F756073BFF8
:1017C0008895ABE9B1E08C9184FB882780F98095FE
:1017D00080FBABE9B1E08C9184F98C93A0E0B1E09F
:1017E0008C9185FB16F00C946B040E941D1F709168
:1017F00000017F7D7093000183E0809398017091D8
:101800009B017F7E70939B0100919801033011F042
:101810000C941F0DE0E7F0E3A1E0B1E0ED93FC9341
:1018200081E0809303018AE08093040181E080934A
:101830000501E8ECF8E40E94CB1EEEE4F7E40E9418
:101840008A23E6E2F1E00E944C220E949522EDE01C
:10185000F0E0AAE2B1E00E94F221E4EBF5E3A1E0BE
:10186000B1E0ED93FC9383E08093030181E08093EA
:101870000401882780930501A0E8B7E0EAE2F1E0DF
:10188000552744E00E94D11F0E94C31EE0E7F0E309
:10189000A1E0B1E0ED93FC93F89486E0809303011E
:1018A00081E080930401882780930501E4EDF8E44A
:1018B0000E94CB1EA0E8B7E0EBE6F1E00E94AC216D
:1018C0000E94C31EE6EBF8E40E94CB1E78940091C0
:1018D0006B01013011F00C94770CA6E2B1E0EAE361
:1018E000F7E40E9481210C94BB0C0C94D10C0230C3
:1018F00011F00C94850CA6E2B1E0E6E5F7E40E9455
:1019000081210C94BB0C0C94D10C033011F00C947D
:10191000930CA6E2B1E0EAE5F7E40E9481210C9481
:10192000BB0C0C94D10C043011F00C94A10CA6E269
:10193000B1E0EEE5F7E40E9481210C94BB0C0C941D
:10194000D10C053011F00C94AF0CA6E2B1E0E2E648
:10195000F7E40E9481210C94BB0C0C94D10C06304E
:1019600011F00C94D10CA6E2B1E0E6E6F7E40E9497
:1019700081210C94BB0CAAE5B1E0E2ECF8E40E94F2
:101980007321EEE4F7E40E948A23E6E2F1E00E948C
:101990004C220E949522EDE0F0E0AAE2B1E00E9424
:1019A000F221ABE9B1E08C9185FB16F00C941F0D90
:1019B00070919B017F7D70939B01EAEDF8E40E949A
:1019C000B21EEAEEF8E40E94B21EECEEF8E40E94C9
:1019D000B21EA0E8B7E0EAE2F1E0552744E00E9439
:1019E000D11F0E94AA1EECEEF8E40E94B21EA0E8ED
:1019F000B7E0EAE2F1E0552744E00E94D11F0E94DF
:101A0000AA1EECEEF8E40E94B21EAAE5B1E00E9424
:101A1000AC1EECEEF8E40E94B21EA0E8B7E0E4E6EB
:101A2000F1E00E94AC210E94AA1EECEEF8E40E94B4
:101A3000B21EAFE5B1E00E94AC1E0E94B91E00913B
:101A40009801043011F00C94880E0E941D1FE0E7ED
:101A5000F0E3A1E0B1E0ED93FC9381E0809303011A
:101A60008AE08093040181E080930501EEEEF8E4C2
:101A70000E94CB1E0E94CB175498A3EBB1E09C911F
:101A800097FF04C04C9B10C09F779C934C990CC04F
:101A900089E19F9390E00E94E31E9F914C9904C0BE
:101AA00090689C930E948017E4EBF5E3A1E0B1E01D
:101AB000ED93FC9383E08093030181E08093040124
:101AC000882780930501A0E8B7E0E2E3F1E055271D
:101AD00044E00E94D11F0E94C31EE0E7F0E3A1E0B2
:101AE000B1E0ED93FC9300919901013011F00C9459
:101AF0008E0DA2E7B1E0E2E5F7E40E94812186E0E5
:101B00008093030181E0809304018827809305017D
:101B1000ECEFF8E40E94CB1E0C94D70D023011F0CC
:101B20000C94A70DA2E7B1E0EAE6F7E40E94812158
:101B300086E08093030181E08093040188278093ED
:101B40000501EEE0F9E40E94CB1E0C94D70D0330A2
:101B500011F00C94C00DA2E7B1E0EEE4F7E40E94AE
:101B6000812186E08093030181E08093040188272E
:101B700080930501EEE1F9E40E94CB1E0C94D70D91
:101B8000043011F00C94D70DA2E7B1E0EEE6F7E4D3
:101B90000E94812186E08093030181E0809304010B
:101BA000882780930501EEE2F9E40E94CB1EABE9A1
:101BB000B1E08C9185FB16F00C94510E70919B0155
:101BC0007F7D70939B01EAEDF8E40E94B21EEAEE7D
:101BD000F8E40E94B21EECEEF8E40E94B21EA0E807
:101BE000B7E0E2E3F1E0552744E00E94D11F0E94F4
:101BF000AA1EECEEF8E40E94B21EA0E8B7E0E2E311
:101C0000F1E0552744E00E94D11F0E94AA1EECEE8D
:101C1000F8E40E94B21EAAE5B1E00E94AC1EECEE10
:101C2000F8E40E94B21EA0E8B7E0E4E6F1E00E940A
:101C3000AC210E94AA1EECEEF8E40E94B21EAFE5B1
:101C4000B1E00E94AC1E0E94B91EE0E4F9E40E94DB
:101C5000B21EA0E8B7E0EDE6F1E00E94AC210E94E0
:101C6000AA1E0E94B91EE2E5F9E40E94B21EA0E895
:101C7000B7E0ECE6F1E00E94AC210E94AA1EECEE77
:101C8000F8E40E94B21EEAEEF8E40E94B21EECEE06
:101C9000F8E40E94B21EEAEEF8E40E94B21E0E942E
:101CA000B91E0E94CB170E94B91EABE9B1E08C911E
:101CB00084FB16F00C94610E73B7707F756073BF70
:101CC0008895ABE9B1E08C9184FB882780F98095F9
:101CD00080FBABE9B1E08C9184F98C93A0E0B1E09A
:101CE0008C9185FB16F00C943A0D0E941D1F70918B
:101CF00000017F7D70930001A2E7B1E0E2E5F7E427
:101D00000E94812185E08093980181E080939A016F
:101D100000919801053011F00C94240F0E941D1FB2
:101D20000E94CB1781E0809303018AE08093040135
:101D300081E080930501E0E6F9E40E94CB1E54980F
:101D4000A3EBB1E09C9197FF04C04C9B10C09F7720
:101D50009C934C990CC089E19F9390E00E94E31EF4
:101D60009F914C9904C090689C930E9472160091B8
:101D70009A01013011F00C94D80E83E08093030196
:101D800088E080930401882780930501EEE6F9E45A
:101D90000E94CB1EA0E8B7E0E4E6F1E00E94AC218F
:101DA0000E94C31EE6EDF7E40E94CB1E0C94140FB4
:101DB000023011F00C94F70E83E08093030188E069
:101DC00080930401882780930501E8E7F9E40E94E5
:101DD000CB1EA0E8B7E0EDE6F1E00E94AC210E9446
:101DE000C31EE6EDF7E40E94CB1E0C94140F0330E3
:101DF00011F00C94140F83E08093030188E080932A
:101E00000401882780930501E2E8F9E40E94CB1ED3
:101E1000A0E8B7E0ECE6F1E00E94AC210E94C31E0E
:101E2000E6EDF7E40E94CB1E00919801013011F01D
:101E30000C94900E0E941D1F81E080939801709178
:101E40009B017F7E70939B015498A3EBB1E09C9122
:101E500097FF04C04C9B10C09F779C934C990CC07B
:101E600089E19F9390E00E94E31E9F914C9904C0EA
:101E700090689C930E945C170E94B91EABE9B1E088
:101E80008C9184FB16F00C944A0F73B7707F7560C9
:101E900073BF8895ABE9B1E08C9184FB882780F90A
:101EA000809580FBABE9B1E08C9184F98C930C9424
:101EB0005A0200919801013011F00C94F10F7091C9
:101EC0009B017F7D70939B01A0E0B1E08C9186FB2C
:101ED00016F40C94AF0FEAEDF8E40E94B21EEAEE9D
:101EE000F8E40E94B21EECEEF8E40E94B21EA0E8F4
:101EF000B7E0EAE0F1E0552744E00E94D11F0E94DC
:101F0000AA1EECEEF8E40E94B21EA0E8B7E0E2E1FF
:101F1000F1E0552744E00E94D11F0E94AA1EECEE7A
:101F2000F8E40E94B21EAAE5B1E00E94AC1EECEEFD
:101F3000F8E40E94B21EA0E8B7E0E4E6F1E00E94F7
:101F4000AC210E94AA1EECEEF8E40E94B21EAFE59E
:101F5000B1E00E94AC1E0E94B91E0C94F10FEAED94
:101F6000F8E40E94B21EEAEEF8E40E94B21EECEE23
:101F7000F8E40E94B21EA0E8B7E0EAE3F1E05527DA
:101F800044E00E94D11F0E94AA1EECEEF8E40E94D9
:101F9000B21EA0E8B7E0E2E4F1E0552744E00E9479
:101FA000D11F0E94AA1EECEEF8E40E94B21EAAE520
:101FB000B1E00E94AC1EECEEF8E40E94B21EA0E874
:101FC000B7E0E4E6F1E00E94AC210E94AA1EECEE2C
:101FD000F8E40E94B21EAFE5B1E00E94AC1E0E9480
:101FE000B91E0895A0E0B1E08C9186FB16F40C9424
:101FF0003D10EAEDF8E40E94B21EEAEEF8E40E9419
:10200000B21EECEEF8E40E94B21EA0E8B7E0EAE1EE
:10201000F1E0552744E00E94D11F0E94AA1EECEE79
:10202000F8E40E94B21EA0E8B7E0E2E2F1E0552732
:1020300044E00E94D11F0E94AA1EECEEF8E40E9428
:10204000B21EAAE5B1E00E94AC1EECEEF8E40E94DC
:10205000B21EA0E8B7E0E4E6F1E00E94AC210E94E5
:10206000AA1EECEEF8E40E94B21EAFE5B1E00E94B9
:10207000AC1E0E94B91E0C947F10EAEDF8E40E9499
:10208000B21EEAEEF8E40E94B21EECEEF8E40E9402
:10209000B21EA0E8B7E0EAE4F1E0552744E00E9470
:1020A000D11F0E94AA1EECEEF8E40E94B21EA0E826
:1020B000B7E0E2E5F1E0552744E00E94D11F0E941D
:1020C000AA1EECEEF8E40E94B21EAAE5B1E00E945E
:1020D000AC1EECEEF8E40E94B21EA0E8B7E0E4E625
:1020E000F1E00E94AC210E94AA1EECEEF8E40E94EE
:1020F000B21EAFE5B1E00E94AC1E0E94B91E089569
:10210000F894A1EBB1E0E8944C9109B1882703FD64
:10211000816002FD8260841711F4B6F310C08C93C5
:102120004295840F823049F0803139F0833229F0B2
:10213000813319F00E94891102C00E94071478941B
:1021400008950F921F922F923F924F925F927F922B
:10215000AF92BF920F931F932F933F934F935F9331
:102160006F937F938F939F93AF93BF93CF93DF939F
:10217000EF93FF938FB78F93F894A9E2B0E00C919F
:1021800002FB81E00EF080E08F93A9E2B0E00C91B9
:1021900003FB81E00EF480E09F918923882311F4F2
:1021A0000C94D910709100017160709300010E942D
:1021B0008911A9E2B0E00C9102FB81E00EF480E00D
:1021C0008F93A9E2B0E00C9103FB81E00EF080E078
:1021D0009F918923882311F40C94F51070910001CC
:1021E0007160709300010E948911789480E080935F
:1021F000A0018F918FBFFF91EF91DF91CF91BF91A0
:10220000AF919F918F917F916F915F914F913F918E
:102210002F911F910F91BF90AF907F905F904F9043
:102220003F902F901F900F9018950F921F922F9212
:102230003F924F925F927F92AF92BF920F931F9304
:102240002F933F934F935F936F937F938F939F93BE
:10225000AF93BF93CF93DF93EF93FF938FB78F939A
:10226000F894A9E2B0E00C9103FB81E00EF080E06D
:102270008F93A9E2B0E00C9102FB81E00EF480E0C4
:102280009F918923882311F40C944D1170910001C2
:102290007160709300010E940714A9E2B0E00C91F4
:1022A00003FB81E00EF480E08F93A9E2B0E00C9193
:1022B00002FB81E00EF080E09F918923882311F4D6
:1022C0000C946911709100017160709300010E947B
:1022D0000714789480E08093A0018F918FBFFF91C5
:1022E000EF91DF91CF91BF91AF919F918F917F91AE
:1022F0006F915F914F913F912F911F910F91BF90DF
:10230000AF907F905F904F903F902F901F900F90D5
:102310001895A0E0B1E08C9180FB16F00C940114AC
:10232000709100017E7F70930001ABE9B1E08C9168
:1023300086FB882780F9809580FBABE9B1E08C9122
:1023400086F98C93A0E0B1E08C9183FB16F40C9499
:10235000C51180919A01815080939A0100919A0150
:10236000003081E009F080E08F9300919A010F3FE7
:1023700081E010F009F080E09F918923882311F417
:102380000C94C51184E080939A010091980101306A
:1023900011F00C948812A0E0B1E08C9186FB16F449
:1023A0000C942F12E2E7F1E00E945122E6E0F1E006
:1023B0000E944C220E942D23EDE0F0E0A6E0B1E067
:1023C0000E94F221E2E7F1E00E945122EEE0F1E00A
:1023D0000E944C220E942D23EDE0F0E0AEE0B1E03F
:1023E0000E94F221809167018150809367010091E2
:1023F00067010F3018F011F00C940D128FE28093EA
:102400006701A6E0B1E0E2E7F7E40E948121AEE0D7
:10241000B1E0E2E7F7E40E948121EEE4F7E40E94F4
:102420008A23EEE0F1E00E944C220E949522EDE02A
:10243000F0E0A2E1B1E00E94F221EEE4F7E40E94B4
:102440008A23E6E0F1E00E944C220E949522EDE012
:10245000F0E0AAE0B1E00E94F2210C948612E2E7DB
:10246000F1E00E945122EEE3F1E00E944C220E9432
:102470002D23EDE0F0E0AEE3B1E00E94F221EEE3C7
:10248000F1E0A6E3B1E00E94F221A5E6B1E00E94EE
:10249000A31EA5E6B1E00D911C910F3051E0150788
:1024A00018F011F00C9466128EE191E0A5E6B1E00F
:1024B0008D939C93AEE3B1E0E6E7F7E40E948121BF
:1024C000A6E3B1E0E6E7F7E40E948121EEE4F7E459
:1024D0000E948A23E6E3F1E00E944C220E949522AA
:1024E000EDE0F0E0AAE3B1E00E94F221EEE4F7E4CF
:1024F0000E948A23EEE3F1E00E944C220E94952282
:10250000EDE0F0E0A2E4B1E00E94F2210C94C313EC
:10251000023011F00C945313A0E0B1E08C9186FBD3
:1025200016F40C94F012E2E7F1E00E945122E6E189
:10253000F1E00E944C220E942D23EDE0F0E0A6E1A4
:10254000B1E00E94F221E2E7F1E00E945122EEE1C7
:10255000F1E00E944C220E942D23EDE0F0E0AEE17C
:10256000B1E00E94F221809168018150809368015E
:10257000009168010F3218F011F00C94CE128FE325
:1025800080936801AEE1B1E0EAE7F7E40E948121BF
:10259000A6E1B1E0EEE7F7E40E948121EEE4F7E482
:1025A0000E948A23EEE1F1E00E944C220E949522D3
:1025B000EDE0F0E0A2E2B1E00E94F221EEE4F7E407
:1025C0000E948A23E6E1F1E00E944C220E949522BB
:1025D000EDE0F0E0AAE1B1E00E94F2210C94511389
:1025E000E2E7F1E00E945122E6E4F1E00E944C2291
:1025F0000E942D23EDE0F0E0A6E4B1E00E94F2217C
:10260000E2E7F1E00E945122EEE4F1E00E944C2268
:102610000E942D23EDE0F0E0AEE4B1E00E94F22153
:10262000A9E6B1E00E94A31EA9E6B1E00D911C91BC
:102630000B3A52E0150718F011F00C9431138EEE9E
:1026400092E0A9E6B1E08D939C93AEE4B1E0E2E8BC
:10265000F7E40E948121A6E4B1E0E6E8F7E40E94F5
:102660008121EEE4F7E40E948A23E6E4F1E00E948F
:102670004C220E949522EDE0F0E0AAE4B1E00E9435
:10268000F221EEE4F7E40E948A23EEE4F1E00E94F6
:102690004C220E949522EDE0F0E0A2E5B1E00E941C
:1026A000F2210C94C313033011F00C948C1380911D
:1026B0006B01815080936B0100916B01003081E0D0
:1026C00010F009F080E08F9300916B010A3080E0F8
:1026D00010F009F081E09F91892B882311F40C946C
:1026E0007A1386E080936B01A6E2B1E0E6E6F7E4B8
:1026F0000E948121EEE4F7E40E948A23E6E2F1E001
:102700000E944C220E949522EDE0F0E0AAE2B1E0A6
:102710000E94F2210C94C313043011F00C94C313E3
:10272000E2E7F1E00E945122EEE2F1E00E944C2249
:102730000E942D23EDE0F0E0AEE2B1E00E94F22134
:10274000EEE2F1E00E944C22EAE8F7E40E948A23DC
:102750000E94332210F00C94B313AEE2B1E0EAE829
:10276000F7E40E948121EEE4F7E40E948A23EEE27E
:10277000F1E00E944C220E949522EDE0F0E0A2E3FD
:10278000B1E00E94F221A0E0B1E08C9183FB16F051
:102790000C94011400919A01013011F00C94EF1384
:1027A00080916401815080936401009164010F3F26
:1027B00081E010F009F080E08F93009164010A300D
:1027C00080E010F009F081E09F918923882311F4C3
:1027D0000C94ED1380E0809364010C94011402309A
:1027E00011F00C94011480916D01815080936D0162
:1027F00000916D010F3F11F00C94011480E0809363
:102800006D0170919B01706270939B010895A0E02F
:10281000B1E08C9180FB16F00C946C167091000165
:102820007E7F70930001ABE9B1E08C9187FB882734
:1028300080F9809580FBABE9B1E08C9187F98C93AE
:10284000A0E0B1E08C9183FB16F40C944214AAE949
:10285000B1E08C918F5F8C9300919A01053081E0FB
:1028600008F480E08F9300919A010A3081E008F02B
:1028700080E09F918923882311F40C94421481E015
:1028800080939A0100919801013011F00C94031586
:10289000A0E0B1E08C9186FB16F40C94AB14E2E757
:1028A000F1E00E945122E6E0F1E00E944C220E94F9
:1028B0003C23EDE0F0E0A6E0B1E00E94F221E2E787
:1028C000F1E00E945122EEE0F1E00E944C220E94D1
:1028D0003C23EDE0F0E0AEE0B1E00E94F221A7E69B
:1028E000B1E08C918F5F8C9300916701003310F4FD
:1028F0000C94891480E180936701A6E0B1E0EEE2D8
:10290000F7E40E948121AEE0B1E0EEE2F7E40E943C
:102910008121EEE4F7E40E948A23EEE0F1E00E94D8
:102920004C220E949522EDE0F0E0A2E1B1E00E948D
:10293000F221EEE4F7E40E948A23E6E0F1E00E944F
:102940004C220E949522EDE0F0E0AAE0B1E00E9466
:10295000F2210C940115E2E7F1E00E945122EEE32E
:10296000F1E00E944C220E943C23EDE0F0E0AEE357
:10297000B1E00E94F221EEE3F1E0A6E3B1E00E94B3
:10298000F221A5E6B1E00E949C1EA5E6B1E00D9102
:102990001C91003251E0150710F40C94E11480E111
:1029A00091E0A5E6B1E08D939C93AEE3B1E0E2E463
:1029B000F7E40E948121A6E3B1E0E2E4F7E40E949B
:1029C0008121EEE4F7E40E948A23E6E3F1E00E942D
:1029D0004C220E949522EDE0F0E0AAE3B1E00E94D3
:1029E000F221EEE4F7E40E948A23EEE3F1E00E9494
:1029F0004C220E949522EDE0F0E0A2E4B1E00E94BA
:102A0000F2210C943016023011F00C94CC15A0E099
:102A1000B1E08C9186FB16F40C946A15E2E7F1E0C4
:102A20000E945122E6E1F1E00E944C220E943C23E8
:102A3000EDE0F0E0A6E1B1E00E94F221E2E7F1E092
:102A40000E945122EEE1F1E00E944C220E943C23C0
:102A5000EDE0F0E0AEE1B1E00E94F221A8E6B1E0E5
:102A60008C918F5F8C9300916801003410F40C946A
:102A7000481580E380936801AEE1B1E0E6E3F7E456
:102A80000E948121A6E1B1E0E2E3F7E40E94812106
:102A9000EEE4F7E40E948A23EEE1F1E00E944C228A
:102AA0000E949522EDE0F0E0A2E2B1E00E94F22166
:102AB000EEE4F7E40E948A23E6E1F1E00E944C2272
:102AC0000E949522EDE0F0E0AAE1B1E00E94F2213F
:102AD0000C94CA15E2E7F1E00E945122E6E4F1E02D
:102AE0000E944C220E943C23EDE0F0E0A6E4B1E01D
:102AF0000E94F221E2E7F1E00E945122EEE4F1E0CF
:102B00000E944C220E943C23EDE0F0E0AEE4B1E0F4
:102B10000E94F221A9E6B1E00E949C1EA9E6B1E064
:102B20000D911C910F3E52E0150710F40C94AA155C
:102B30008CEA92E0A9E6B1E08D939C93AEE4B1E01B
:102B4000EAE4F7E40E948121A6E4B1E0E6E4F7E4D8
:102B50000E948121EEE4F7E40E948A23E6E4F1E09A
:102B60000E944C220E949522EDE0F0E0AAE4B1E040
:102B70000E94F221EEE4F7E40E948A23EEE4F1E001
:102B80000E944C220E949522EDE0F0E0A2E5B1E027
:102B90000E94F2210C943016033011F00C94F615BB
:102BA000ABE6B1E08C918F5F8C9300916B010730A5
:102BB00010F40C94E41581E080936B01A6E2B1E07F
:102BC000EAE3F7E40E948121EEE4F7E40E948A231D
:102BD000E6E2F1E00E944C220E949522EDE0F0E056
:102BE000AAE2B1E00E94F2210C943016043011F0F8
:102BF0000C943016E2E7F1E00E945122EEE2F1E09F
:102C00000E944C220E943C23EDE0F0E0AEE2B1E0F5
:102C10000E94F221EEE2F1E00E944C22EEE8F7E49D
:102C20000E948A230E94332218F011F00C941A1685
:102C30000C942016AEE2B1E0EEE8F7E40E948121A8
:102C4000EEE4F7E40E948A23EEE2F1E00E944C22D7
:102C50000E949522EDE0F0E0A2E3B1E00E94F221B3
:102C6000A0E0B1E08C9183FB16F00C946C160091FF
:102C70009A01013011F00C945A16A4E6B1E08C913F
:102C80008F5F8C9300916401093081E008F480E04B
:102C90008F93009164010B3081E008F080E09F91F8
:102CA0008923882311F40C94581688E080936401DA
:102CB0000C946C16023011F00C946C16ADE6B1E079
:102CC0008C918F5F8C9300916D01093011F00C9401
:102CD0006C1688E080936D0170919B017062709317
:102CE0009B010895709100017860709300010E942B
:102CF000751700919A01013011F00C94A116E0E0D3
:102D0000F0E0A4E6B1E07BE70E94FE2183E080933F
:102D1000030188E080930401882780930501EEE693
:102D2000F9E40E94CB1EA0E8B7E0E4E6F1E00E94DF
:102D3000AC210E94C31EE6EDF7E40E94CB1E0C946A
:102D4000E416023011F00C94C716E1E0F0E0ADE6B5
:102D5000B1E07BE70E94FE2183E08093030188E0DD
:102D600080930401882780930501E8E7F9E40E9435
:102D7000CB1EA0E8B7E0EDE6F1E00E94AC210E9496
:102D8000C31EE6EDF7E40E94CB1E0C94E41603305C
:102D900011F00C94E41683E08093030188E08093A3
:102DA0000401882780930501E2E8F9E40E94CB1E24
:102DB000A0E8B7E0ECE6F1E00E94AC210E94C31E5F
:102DC000E6EDF7E40E94CB1E4C990C94F9168CE2C8
:102DD00091E00E94E31E4C990C94F9167091000149
:102DE000777F709300010E9475170E9475170C94ED
:102DF0000017A0E0B1E08C9183FB16F40C947916D7
:102E0000EAEDF8E40E94B21EEAEEF8E40E94B21E77
:102E1000ECEEF8E40E94B21EA0E8B7E0EAE0F1E0D0
:102E2000552744E00E94D11F0E94AA1EECEEF8E450
:102E30000E94B21EA0E8B7E0E2E1F1E0552744E0CD
:102E40000E94D11F0E94AA1EECEEF8E40E94B21E5E
:102E5000AAE5B1E00E94AC1EECEEF8E40E94B21EBE
:102E6000A0E8B7E0E4E6F1E00E94AC210E94AA1ECF
:102E7000ECEEF8E40E94B21EAFE5B1E00E94AC1E99
:102E80000E94B91E84E690E00E94E31EE0E4F9E4AB
:102E90000E94B21EA0E8B7E0EDE6F1E00E94AC218E
:102EA0000E94AA1E0E94B91E82E390E00E94E31EC7
:102EB00081E08093980108950E947517A8E9B1E018
:102EC0008C918F5F8C9300919801053011F00C94D8
:102ED0006C1781E08093980170919B0170627093F0
:102EE0009B0180E08093A0010895289882E390E000
:102EF0000E94E31E289A82E390E00E94E31E089558
:102F000070919B01706270939B01ABE9B1E08C9171
:102F100082FB882780F9809580FBABE9B1E08C913A
:102F200082F98C930E947517A0E0B1E08C9186FB2A
:102F3000882780F9809580FBA0E0B1E08C9186F92C
:102F40008C93A9E9B1E08C918F5F8C9300919901EA
:102F5000053010F40C94AF1781E0809399014C99DF
:102F60000C94C7178CE291E00E94E31E4C990C94DC
:102F7000C71770910001777F709300010E94751749
:102F80000E9475177091000170627093000180E0DB
:102F90008093A00108951C990C94D717709100019B
:102FA0007061709300015D9A5E980C94D9175E9AD7
:102FB0005D980895AEE9B1E00E949C1EAEE9B1E0D3
:102FC0000D911C9102345FE0150718F011F00C947C
:102FD000EB170C94F417AEE9B1E00E948921A0EA46
:102FE000B1E08C918F5F8C930091A001033018F0B9
:102FF00011F00C94FD170C94001884E08093A0014C
:1030000008950E94751784E08093A00108953054BC
:10301000008040201008AA020804AA020402AA3C68
:103020000204AA010408AA03083040C000AA030051
:10303000FF00AA4D00FF00AA0300FF00AA4D00FFF9
:1030400000AA0300FF00AA4D00FF00AA0300FF0032
:10305000AA4D00FF00AA03000304081020AA0320C1
:1030600040AA3F4020AA03201008040300AA02003F
:103070000106060000000000000000005F000000E4
:10308000000300030000147F147F1400042A7F2A29
:1030900010002313086462003649562050000003D4
:1030A00000000000001C2241000041221C00000022
:1030B0002A1C7F1C2A0008083E08080000407030C7
:1030C00000000808080808000000606000006010A8
:1030D000080403003E5149453E0000427F40000085
:1030E00062514949460022414949360018141211DB
:1030F0007F002745454539003E454545390001617A
:10310000110907003649494936000E5151513E0018
:103110000000363600000040763600000008142219
:1031200000001414141414000022140800000201FA
:10313000510906003E4955550E007C1211127C00C3
:103140007F49494936003E41414122007F414122A9
:103150001C007F49494941007F09090901003E419E
:10316000415172007F0808087F0000417F41000044
:103170002040413F01007F08142241007F40404031
:1031800060007F020C027F007F0204087F003E4146
:1031900041413E007F1111110E003E4151617E0000
:1031A0007F091929460026494949320001017F015A
:1031B00001003F4040403F001F2040201F003F4093
:1031C00038403F00631408146300070870080700C4
:1031D00061514945430000007F414100030408104C
:1031E000600041417F0000000402010204004040F1
:1031F00040404040010200000000304A4A3C40008C
:103200007F4848483000384444442000304848480B
:103210007F0038545454180000087E0900000854F8
:10322000545438007F080404780000487A400000B5
:103230000020403D00007F101028440000007F0067
:1032400000007C047C0478007C0804047800384486
:10325000444438007C14141408000814147C400002
:103260007C080404080048545454240000043F44DB
:1032700000003C4040207C001C2040201C003C40C2
:1032800030403C004428102844000C5050503C0072
:103290004464544C440000000836410000007F00A4
:1032A0000000413608000000080408040000000087
:1032B000000000000000000000000000000000000E
:1032C00000000000000000000000000000000000FE
:1032D000000040004000400000000000000000002E
:1032E00000000000143E55554100130864026000C0
:1032F00000000000000000000000000000000000CE
:1033000000000000000000000000000000000000BD
:1033100000000000000000000000000000000000AD
:10332000000000000000000000000000000000009D
:10333000000000183C3C18000000000000000000E5
:1033400000000000003C24243C00000000000000BD
:10335000000000000000000000000000000000006D
:10336000000000000000000000000000000000005D
:10337000000000000000000000000000000000004D
:10338000000000000000000000000000005A24249B
:103390005A0000000000000000007700000000005C
:1033A000000000007C55545554003E415D55413E9F
:1033B00000000000000008142A1422000202020289
:1033C0000E000000000000000000000000000000EF
:1033D0000000000006090906000000242E24000059
:1033E00000000000000000000000000000000000DD
:1033F0000000FC2040403C00040E7E027E000000E5
:10340000080000003855545518007810207E02003E
:1034100000000000000022142A1408000000000030
:10342000000000000000000000000000000000029A
:10343000780200007C1211127C007F49494930005B
:103440007F49494936007F0101010100407E417FEB
:1034500040007F494949410077087E0877002241B2
:10346000494936007F2010087F007F2011087F0027
:103470007F0814224100403E01017F007F020402C8
:103480007F007F0808087F003E4141413E007F01E8
:1034900001017F007F09090906003E4141412200E8
:1034A00001017F010100074848483F000C127F12CC
:1034B0000C006314081463003F20203F60000708DD
:1034C00008087F007F407C407F003F203C203F6019
:1034D000017F484830007F4830007F007F484848DF
:1034E0003000224149493E007F083E413E004629C6
:1034F00019097F0020545454780078545454200003
:103500007C54545428007C0404040400085454548B
:1035100038003854545418006C1078106C0028444B
:10352000545428003C4040407C003C4044407C00D7
:103530007C1010284400403804047C007C081008EB
:103540007C007C1010107C003844444438007C041B
:1035500004047C007C1414140800384444442800FB
:103560007C047C0478000C5050503C0008147C14FF
:1035700008004428102844001C20203C60000C1047
:1035800010107C003C4078407C001C2038203C60BF
:10359000047C505020007C5020007C007C50505017
:1035A00020002844545438007C1038443800085413
:1035B00034147C00020A1400000000000000000027
:1035C00000000000000000000000000000000000FB
:1035D000FE0000000000000000001B0000000000D2
:1035E00000001E0000001E0000000000000000009F
:1035F000000000000020A07826A0782620000119F5
:10360000070119070101010000001C2642FF820288
:10361000000000001810103F110F00001C22222291
:103620009C403008040210080403000E1111110E12
:1036300000805C62A2321C00008007081010111389
:103640001C181601000000001E0000000000000011
:103650000000000000000000000000E0180C040260
:1036600002000000000718302000000000020204E1
:103670000C18E000000000000020301807000000D7
:10368000000818F04EF018080000000000000000CC
:103690000000000000000000E00000000000020246
:1036A00002021F02020202000000000000000000EF
:1036B00000000000001838000000000000000000BA
:1036C00000000000000000000101010101010000F4
:1036D00000000000000000000000000000181800BA
:1036E000000000000000000000C0300C02000000DC
:1036F000300C03000000000000F00C0202020CF08D
:10370000000000030C1010100C030000000404045F
:10371000FE0000000000001010101F10101000002C
:103720000006020202C23C00000000181412111030
:1037300010000000000002424242BC0000000000F5
:10374000101010100F00000000C0201804FE000030
:10375000000003020202021F0202000000003E22DB
:103760002242820000000000101010080700000034
:1037700000F04C22222242800000000708101010A6
:103780000807000000020202C2320A060000000020
:103790001807000000000000001CA24242A2A21C68
:1037A0000000000F101010100906000000788402BD
:1037B000020284F800000000101111110C03000037
:1037C0000000006060000000000000000018180009
:1037D0000000000000000060600000000000000029
:1037E0000018380000000000000000008080404009
:1037F00020000000030304040808100000808080FB
:103800008080808080000004040404040404040018
:1038100000204040808000000000001008080404E0
:1038200003030000000E02028242261C000000007A
:10383000001B000000000000F01804E2120A8AFCDD
:103840000000030C181314161B07040400008070FA
:103850001830C0000000100E0302020202030C1018
:1038600000F88888888848300000001F1010101069
:10387000110E0000C0301008080808180000030CE2
:10388000081010101010000000F80808080810E0D8
:103890000000001F101010100807000000F80808B2
:1038A000080808080000001F111111111110000074
:1038B00000F80808080808080000001F01010101BD
:1038C0000100000000C030100808080818000003BC
:1038D0000C08101011111F0000F80000000000F883
:1038E0000000001F01010101011F0000000808087D
:1038F000F80808080000001010101F101010000039
:10390000000000080808F800000000001010101067
:103910000F00000000F88080402010080000001F09
:10392000000102040408100000F80000000000007C
:103930000000001F1010101010100000F838E000F8
:1039400000C038F800001F0001070601001F00003A
:1039500000F81060800000F80000001F0000010661
:10396000081F000000E0100808080810E000000729
:10397000081010101008070000F8080808088870E0
:103980000000001F010101010000000000E010081C
:1039900008080810E00000070810101030080700A1
:1039A00000F80808088870000000001F01010304E7
:1039B00008100000007048888808081800000018E7
:1039C00010101011090E000008080808F80808086F
:1039D0000800000000001F000000000000F80000C8
:1039E000000000F800000007181010100807000081
:1039F0000830C000000000C03008000001061818A0
:103A00000700000018E00000E0C00000E01800031C
:103A10001C0F00010E1C0300081020408080402075
:103A20001008100804020101020408100810608048
:103A3000008040201008000000001F00000000006F
:103A400000080808088848281800001814121110E7
:103A500010101000000000FE020202020000000030
:103A6000003F00000000000000020C30C000000019
:103A700000000000000000030C3000000002020201
:103A800002FE0000000000000000003F00000000F7
:103A9000000000E0380E7080000000040300000009
:103AA00000030400000000000000000000002020CF
:103AB0002020202020202020000000000102000003
:103AC00000000000000000000000000000002020B6
:103AD0002020C0000000000C121111091F1000006E
:103AE00000FE4020202060800000001F0810101001
:103AF0000807000000804020202020200000000750
:103B0000081010101010000000804020202040FEFF
:103B10000000000718101010081F0000008040204F
:103B2000202020C000000007091111111111000010
:103B3000002020FC2422222222000000001F00007E
:103B40000000000000804020202040E0000000072E
:103B500018101010083F000000FE8040202020C0F8
:103B60000000001F00000000001F000000202026B1
:103B7000E60000000000000000001F000000000040
:103B80000000202026E60000000000000000003FAA
:103B90000000000000FE0000804040200000001FE8
:103BA00001030404081000000000020202FE0000ED
:103BB000000000000000001F00000000E040202086
:103BC000C0402020C0001F0000001F0000001F0098
:103BD00000E0C040202020C00000001F00000000C6
:103BE000001F0000008040202020408000000007CF
:103BF000081010100807000000E04020202060801E
:103C00000000003F0810101008070000008040204E
:103C1000202040E00000000718101010083F0000AE
:103C20000000E080402020E0000000001F000000B5
:103C30000000000000C0202020202000000000180C
:103C4000111112120C000000002020F8202020206A
:103C500000000000000F10101010000000E0000035
:103C60000000E0000000000F101010081F0000000E
:103C700020C00000000000C0200000010618100C49
:103C80000300000060800000C0800000806000072A
:103C9000180E01010E18070000204080000080402F
:103CA00020000010080403030408100020C00000D6
:103CB00000000000C02000000306381806010000C4
:103CC000002020202020A0602000001018141211D5
:103CD0001010100000000000FC02020200000000B2
:103CE00001013E000000000000000000FE00000096
:103CF0000000000000003F00000000000000020281
:103D000002FC0000000000000000003E0101000075
:103D1000008080800000000000800300000001019E
:103D2000020202010080C0201020C0800000001F9D
:103D300010101010101F0000ED91FC91EF5FFF4F6D
:103D4000FC93EE930895ED91FC91E150F040FC93CB
:103D5000EE930895A0E8B7E08D91882311F00CD080
:103D6000FBCF08950E947921802D11F005D0FACF64
:103D700008958DE001D08AE00090C00005FEFCCFE0
:103D80008093C6000895A0E8B7E08D91882311F0D4
:103D90000FD0FBCF08950E947921802D11F008D01B
:103DA000FACF089588EE93E00ED03197D9F70895B1
:103DB0000C942D1F3197F1F70895689462F80895D7
:103DC000E89462F80895EF93FF93EE27E82BE92B30
:103DD00031F0EAEFF0E03197F1F70197D1F7FF9179
:103DE000EF910895449884E699270E94E31E449A2F
:103DF0004198439A81E20BD088EC09D086E007D045
:103E000083E105D080E203D08CE001D00895429890
:103E100001C0429A7F93439898E0880F10F4409A2B
:103E200001C0409800000000419A00000000419845
:103E30009A9599F7439A7F91089580E2E8DF80E4AC
:103E4000E6DF80E8E4DF00E014E58827E2DF1A958A
:103E5000E9F703950630D1F70895EF93FF9350915A
:103E600003015F9370900401E0910101F091020160
:103E70000E947921202D0E947921302D0E947921E4
:103E8000002D0E947921602D8052482F0E94192216
:103E9000E40FF51FCC241124E22E603059F1DD240B
:103EA000DA94CD2CFF24032F0E94792121F00A956A
:103EB000E00FF11D03C0F3940A95B1F7FD1408F467
:103EC000DF2CEA9479F7E22EFF24032F3197C8956F
:103ED000002021F00A95E01BF10903C0F3940A9534
:103EE000A9F7FC1408F4CF2CEA9471F7D31611F457
:103EF000D62ECC2470920401732F7C1940910401BA
:103F0000509103015F930E94C71F5F91603041F0A1
:103F1000DD2031F05D2D0E9479215A95E1F77D1960
:103F20000E947921802D50910501552309F080953B
:103F300040910401453514F40E94091F5091040179
:103F40005395509304017A9559F7EC0DF11D6030AB
:103F500081F050910501762F8827552309F080952F
:103F60000E94091F7A95C1F750910401560F509392
:103F70000401509103015395509303012A9509F0D0
:103F8000B9CF5F9150930301FF91EF9108954A9546
:103F90005A9580E23CDF80E4850F39DF80E8840FAA
:103FA00036CF0E944C220E946E2217FF03C08DE282
:103FB0008D931127003821F4E0E8F2E40C9473218A
:103FC0000F3741F4FF2019F4E6E7F2E4F7CFE2E718
:103FD000F2E4F4CF4A934A934A935A93BA93AA933A
:103FE000BB270F5F02F5BB27802F0A950E9478221E
:103FF0008D3E90F4E0EDF2E4A3E00E948A230E945B
:104000003322BB1FB0FF06C070970E948A230E9414
:10401000EE223C96AA9589F7ECECF2E40E948A2302
:104020000E94EE2222C0093058F1033178F10A31A2
:1040300030F418E08BE192E9E4E8F2E42EC00A954E
:104040000E947822E4ECF2E4BFEFA3E00E948A230E
:104050000E943322BB1FB0FD06C038960E948A23FF
:104060000E94EE223C97AA9589F7B095BB0F0E945B
:104070006E22039513E08AEF99E0F816090740F4E1
:1040800013E08BE094E0E8E9F2E407C016E001C039
:10409000B39583E194E2ECE8F2E46A81BF3F19F45E
:1040A000BB2711276260BD836A831C83A881B98105
:1040B00060E36D93A883B9836D93081B0195AA24CF
:1040C000BB246A816A7F002339F0F694E794D79481
:1040D000B794A7940A95F7CF19E000270E948A2386
:1040E000CC248FEF74E0AC14B206D306E406F506D8
:1040F00030F0AC18B20AD30AE40AF50A21F1881F9D
:104100007A9531F05695479537952795C794EBCF1B
:10411000809522D041F0969508F7FE2CED2CDB2CF3
:10412000BA2CAA24DBCF25D05D813C812B8170D0B5
:10413000277021F02BD06CD0E8F301C03CD04CD0DC
:1041400078D0269608958894881F7A95E9F7809507
:1041500003D049F38827FCCF806360FD06C080331D
:1041600011F0616002C0039561FD8D9360FD1A95A9
:10417000089599278E919C9385338E9108F08395AD
:104180008A3308F080E38C93C0F70895732F720F81
:1041900061FF701B0AD01296785019F050F38E937D
:1041A00080E38E937150EAF70895A881B981A70F33
:1041B0008827B81F089579E061FD700FF6DF48E0A9
:1041C000431B400F8AF381F399274A9569F38E9137
:1041D000803351F79C93F9CF732F61FF701B739558
:1041E000A881B981EA2FFB2F11978191803361FF5C
:1041F00009F08D937A9511F48EE28D938191882345
:10420000C1F7772311F480E38D9388278C93089569
:10421000889462FD0895002359F4A881B9818C9196
:10422000803331F0552321F0539533506460089466
:1042300008955523E9F085E48D931AF48DE28D936A
:104240005195652F660F560F5A3010F060E503D078
:1042500068E001D0DACF8FEF74E0561708F0561BF4
:10426000881F7A9511F06695F8CF809580638D93BD
:1042700008954E414E00496E66696E69747900007A
:10428000302E300000404B4C0020A107000050C3EE
:10429000000088130000F401000000320000000557
:1042A00000008000CCCCCC0C14AE47019CC4200094
:1042B000DC460300E353000063080000D700000061
:1042C000150000001CC25367A5D46853002474492C
:1042D00015BE9A17CCBC8C2BBD3786350191119138
:1042E0002191308108950E9479210D920020D9F703
:1042F0000895C89531960020089591E005C092E098
:1043000003C094E001C098E0F4DF0D929A95E1F7C4
:10431000089582E001C084E099279D938A95E9F78A
:104320000895000F111F221F331F08950095109547
:10433000209530950F5F1F4F2F4F3F4F08950191EC
:1043400010810CC00E946E210BC00191108117FFDB
:1043500005C03FEF2FEF04C000811127222733272C
:1043600037FF03C0E3DF8DE28D93CF92DF92EF92B0
:10437000AA24BB24CC24DD24EE2440E2EAE0FF277B
:1043800055E093E38081890F87FD9F7083FD907FC7
:10439000891B81935A95A9F7C4DFAA1CBB1CCC1CAE
:1043A000DD1CEE1C4A9551F7E894EFE0FF2782915F
:1043B0000CD0EB30E0F71EF068948A2D0AD08827E5
:1043C0008D93EF90DF90CF900895982F829501D034
:1043D000892F8F70805D26F0803309F408956894EA
:1043E0008D93089594E081918D939A95E1F70895C6
:1043F000F999FECFE1BDF2BD3196089591E001C07B
:1044000092E07B3751F47FB7F894F2DF8D9180BD55
:10441000FA9AF99A9A95C9F77FBF7727089591E09C
:1044200001C092E0E5DFF89A80B58D939A95D1F7B7
:104430000895FF935527F8E0469508F4500F5795D7
:104440004795FA95D1F7FF910895B7FE089590E842
:10445000B91611F4D0FE08959FEFD91AE90AF90AA6
:1044600009F4039508950F928F939F93D216E30654
:10447000F4060FB680E890E8802795270FBE8907DD
:1044800039F00FB6892B87FD02C081E008260FBEE8
:104490009F918F910F900895D190E190F1900191AB
:1044A000089521913191419151910895502F2D2DD1
:1044B0003E2D4F2D612F0895D094E094F09491E01B
:1044C000D90E9927E91EF91E10950895652F90E8D9
:1044D000440F551F5927990F47956078102F90E882
:1044E000FF0C001F0927990FF794107800380895E2
:1044F000FF0C90E89027110F9795F794092F0895D6
:104500002DEC3CEC4CEC5DE366270FC0C5DFCEDF45
:10451000DD24EE2490E8F92E0FE307C0C2DF05C0CA
:104520002227332740E251E46627552351F1002327
:1045300081F1CCDF71F11627005850580894050B13
:1045400018F407FD03C025C007FD23C04695379525
:104550002795F694E794D79425D0FF202AF0DD0C18
:10456000EE1CFF1C015073F09D2D969548F0DD2048
:104570003AF4EE202AF491E0D90E9927E91EF91EAB
:10458000B7CF07C09FE7092FF92A9FEFD92EE92E51
:104590000895DD24EE24FF240027112708950FE756
:1045A0009FEFF2CF9F929924AA24BB2488E1D216D0
:1045B000E306F40628F0D21AE30AF40A089401C0CC
:1045C0008894991CAA1CBB1CDD0CEE1CFF1C8A9550
:1045D00071F7D92CEA2CFB2C9F90089577DFD9F046
:1045E0005038C9F016270058952F90580894091F85
:1045F00012F418F40EC008F00EC00FD0FF202AF0FD
:10460000BB0CDD1CEE1CFF1C02C0039513F01DDF6C
:104610006FCF0C94C2220C94C9229F92FF92EF920A
:104620008D2DFF24EE24DD24BB2493E0849F100114
:10463000829FB00CD11CE21CF31C839FD00CE11CA8
:104640002224F21C9A9531F0BD2CDE2CEF2CFF2495
:104650008F91ECCF9F90089524DF38DF503829F0F8
:1046600090E869270CC00AF045D042CF5FE32227CB
:104670003327442701C015DF29DF5038B1F3003854
:1046800099F3902F951B8BF312F434D0FACF983115
:1046900018F0222733274427983028F0232F342F6F
:1046A00044279850F9CF992329F0469537952795B7
:1046B0009A95D9F7912F962742F014D0B0F6F79437
:1046C000E794D7940F5F8BF65DCF10D051F008F4CC
:1046D000F3DEFF2052F2DD0CEE1CFF1C0150CBF785
:1046E00051CF57CFD20EE31EF41E0895D21AE30A1B
:1046F000F40A0895DF92EF92FF920F931F93D22E48
:10470000E32EF42E052F162F6F915F914F913F915D
:104710002F9108950E947921202D0E947921302D1A
:104720000E947921402D0E947921502D0895003F4B
:10473000B1498000B14900BCB149E073B04900C83B
:10474000AF496043844AF883834AB8D5854A00401C
:104750001C460000FA42B07BB0496887B049D04699
:10476000B149A04EB149F094B14900007A440050DB
:10477000C34718B8B1490C51844A98F6B149183B5F
:10478000B1492C16864A6CC4834A0093A3494089D8
:10479000954A303030300000326D205452580000BD
:1047A000415820656C656B74726F6E696B610000B7
:1047B0004348200020202020202020202000536378
:1047C000616E6E696E670000204D487A00004D41B1
:1047D0004C494320200020202020202020004D4F45
:1047E000484F522020004E414E4F53202000534C42
:1047F000454D454E4500545244494E4F56004B4F8F
:104800005241444120005A41474152534B004D52BE
:104810005A4C49434100504F484F524A4500475275
:104820004D4144412000495A4F4C412020004B52F9
:10483000494D202020004B414E494E2020004D493B
:10484000524E41204700532E20534C454D004B52B1
:104850005641564543004252455A49434500545239
:104860005354454C4A00504952414E202000424F7B
:104870004320202020004A414E434520200053562B
:104880002E20524F4B004345204D455354004C4180
:104890005A45202020004B554D2020202000532E2B
:1048A000504C414E49005354524D454320005552FF
:1048B000534C4A412000200020202000303030346A
:1048C0000000303031380000204543484F4C494EFD
:1048D0004B20000020434820000041542B444D4F02
:1048E00053455447524F55503D0030002C00204650
:1048F00072656520467265712E20000053746570E4
:104900002031322C35206B487A202020000053744F
:10491000657020313030206B487A2020200053749D
:1049200065702031204D487A2020202020005374CB
:104930006570203130204D487A2020202020000052
:1049400041542B444D4F534554564F4C554D453DC6
:10495000000041542B444D4F5345544D49433D00B5
:10496000204E41535441564954455620000053713E
:1049700075656C63683D2000566F6C756D653D20F4
:1049800000004D6F642E206C6576656C3D20000044
:00000001FF
